:100000000C9434000C9449000C9449000C94490061
:100010000C9449000C9449000C9449000C9449003C
:100020000C9449000C9449000C9449000C9449002C
:100030000C9449000C9449000C9449000C9449001C
:100040000C9449000C9449000C9449000C9449000C
:100050000C9449000C9449000C9449000C944900FC
:100060000C9449000C94490011241FBECFEFD8E036
:10007000DEBFCDBF11E0A0E0B1E0EAEAF1E002C0EE
:1000800005900D92AC30B107D9F70E94CC000C94CA
:10009000D3000C9400009BB19F70282F207F922BDF
:1000A0009BB95A985B9A32E03A95F1F700C05B9899
:1000B000E7ECF0E03197F1F700C000002BB12F70B2
:1000C000F0E18F9FC0011124822B8BB95B9A32E043
:1000D0003A95F1F700C05B988FEC97E00197F1F744
:1000E00000C0000008959BB19F70282F207F922BA5
:1000F0009BB95A9A5B9AE7ECF0E03197F1F700C0B0
:1001000000005B98E7ECF0E03197F1F700C00000E9
:100110002BB12F70F0E18F9FC0011124822B8BB97E
:100120005B9A87EC90E00197F1F700C000005B98C4
:10013000EFECF7E03197F1F700C0000008958FEF82
:100140008AB98FE39CE90197F1F700C0000082E0D3
:100150000E944B0088E20E944B008CE00E944B0002
:1001600086E00E944B0081E00E944B008FEC97E0FC
:100170000197F1F700C000000895CF93DF93EC01E1
:100180008881882331F021960E9473008991811122
:10019000FBCFDF91CF9108950E949F0080E091E016
:0A01A0000E94BD00FFCFF894FFCFCE
:0C01AA0052464944204E554D424552003B
:00000001FF
