S00C000072766D342E737265638F
S11300000C9434000C9449000C9449000C9449005D
S11300100C9449000C9449000C9449000C94490038
S11300200C9449000C9449000C9449000C94490028
S11300300C9449000C9449000C9449000C94490018
S11300400C9449000C9449000C9449000C94490008
S11300500C9449000C9449000C9449000C944900F8
S11300600C9449000C94490011241FBECFEFD8E032
S1130070DEBFCDBF11E0A0E0B1E0EAEFFDE002C0D9
S113008005900D92A035B107D9F70E9465010C9433
S1130090FB060C9400008AB187788AB9599A5A9859
S11300A000005B9A000089B18695869586958295B5
S11300B0807F00005B9800005B9A000099B100000B
S11300C05B98000088236CF359988AB188678AB9D1
S11300D00895982F92959F708F70611102C05A985D
S11300E001C05A9A00005B9A2BB12778990F990F97
S11300F0990F922B9BB900005B9800005B9A9BB10F
S11301009778880F880F880F892B8BB900005B982C
S113011000000E944B0008950F931F93CF93DF9329
S11301208C01FC018081882309F18532A9F4E8015E
S11301302196F80181818053883020F461E00E9487
S113014069000EC061E085E20E94690061E0F80187
S113015081810E94690004C061E00E946900E80195
S11301608E010F5F1F4F89818111DFCFDF91CF9106
S11301701F910F910895843178F4623031F0633027
S113018031F0613029F4806403C08C5E01C08C5A64
S113019060E080680E94690008959BB19F70282FD9
S11301A0207F922B9BB94498459A32E03A95F1F717
S11301B000C04598E7ECF0E03197F1F700C000008B
S11301C02BB12F70F0E18F9FC0011124822B8BB9CA
S11301D0459A32E03A95F1F700C045988FEC97E0E4
S11301E00197F1F700C0000008959BB19F70282F7C
S11301F0207F922B9BB9449A459AE7ECF0E0319723
S1130200F1F700C000004598E7ECF0E03197F1F712
S113021000C000002BB12F70F0E18F9FC0011124AA
S1130220822B8BB9459A87EC90E00197F1F700C0D7
S113023000004598EFECF7E03197F1F700C00000BB
S1130240089587B1806387B988B18F7C88B98AB1F2
S1130250806F8AB98BB18F708BB98FE39CE901975A
S1130260F1F700C0000082E00E94CD0088E20E9405
S1130270CD008FE00E94CD0086E00E94CD0081E099
S11302800E94CD008FEC97E00197F1F700C00000C9
S11302900895CF93DF93EC018881882331F0219670
S11302A00E94F50089918111FBCFDF91CF910895D0
S11302B081E00E94CD008FEC97E00197F1F700C038
S11302C0000080E80E94CD000895CF93DF93CDB75E
S11302D0DEB765970FB6F894DEBF0FBECDBF2FE72C
S11302E088E391E0215080409040E1F700C0000095
S11302F00E94210180E091E00E9449010E940604CD
S1130300EFEFF9E628E1E150F0402040E1F700C0CA
S113031000000E9458010E94450287E30E943502B2
S1130320823961F48CE091E00E94490180EC0E94E2
S1130330CD008BE191E00E94490113C080598230C5
S113034060F484E291E00E94490180EC0E94CD00B7
S11303508BE191E00E94490104C083E391E00E9493
S1130360490182E00E943502682F606282E00E94A7
S1130370280283E00E943502682F606883E00E94AF
S113038028028FEF9EE9E4E281509040E040E1F7DB
S113039000C000000E9458014E01FEE08F0E911C27
S11303A00F2EF5E4EF2EF1E0FF2EF02DCE01019695
S11303B06C01A82EBD2CBE016A5F7F4F82E50E94AE
S11303C09A038130B9F583E491E00E944901CE019A
S11303D006960E94CE03813029F58E010A5F1F4FD5
S11303E0F80181918F011F928F93FF92EF92DF9218
S11303F0CF920E9411048A2D9B2D0E9449010F90D7
S11304000F900F900F900F900F900815190541F75A
S1130410FFEF28E08DE3F15020408040E1F700C079
S1130420000008C061E080E00E94BB0088E491E025
S11304300E948C008EE491E00E9449019FEFE9E65E
S1130440F8E19150E040F040E1F700C00000B3CF84
S1130450CF93C62F2A98880F8E770E940B048C2F77
S11304600E940B042A9ACF9108952A98880F8E77B8
S113047080680E940B0480E00E940B042A9A08956D
S11304806FE081E00E94280208950E9440026DE816
S11304908AE20E9428026EE38BE20E9428026EE147
S11304A08CE20E94280260E08DE20E94280260E44F
S11304B085E10E9428026DE381E10E94280284E123
S11304C00E943502982F937029F4682F636084E1A9
S11304D00E94280208953F924F925F926F927F92FA
S11304E08F929F92AF92BF92CF92DF92EF92FF9240
S11304F00F931F93CF93DF93982EF62EE72E442E5F
S1130500822E332E58018CE0981609F4C9C0EEE00F
S11305109E1203C010E102E102C010E000E084E09A
S11305200E943502682F6F7784E00E9428028AE0D7
S11305300E943502682F60688AE00E94280260E009
S113054081E00E942802512C612C712C4114510429
S11305506104710419F415C010E307E7CF2DDE2DF3
S1130560C12CD12C7601699189E00E942802FFEF09
S1130570CF1ADF0AEF0AFF0AC414D504E604F7040D
S113058090F3692D81E00E9428028CE0981208C043
S11305908DE00E943502682F60688DE00E94280279
S11305A084E00E943502F82EC0E0D0E011600AC059
S11305B084E00E943502F82E2196CF3CE7E0DE0766
S11305C009F48CC0812F8F2199F392C00170F0221D
S11305D011F0C2E001C0C1E0FCE09F1298C08AE0C3
S11305E00E943502482E8CE00E943502282F277085
S11305F0A9F0842D90E00197880F991F880F991F07
S1130600880F991F820F911D092E000CAA0BBB0B9A
S1130610F50180839183A283B38311C0842D90E07C
S1130620880F991F880F991F880F991F092E000C96
S1130630AA0BBB0BF50180839183A283B38344206F
S113064071F0842D813108F080E1482E512C612C09
S1130650712C411451046104710429F458C0412CD3
S1130660512C32014394082D132DC12CD12C760129
S113067089E00E943502F80181938F01FFEFCF1AC0
S1130680DF0AEF0AFF0AC414D504E604F70480F372
S11306903EC06CE081E00E94280210E307E778CFB7
S11306A084E00E943502682F6F7784E00E9428025C
S11306B08AE00E943502682F60688AE00E9428025E
S11306C060E081E00E942802512C612C712C4114BD
S11306D051046104710409F03FCFDBCF8DE00E9427
S11306E03502682F6F778DE00E942802C3E00FC0A7
S11306F08DE00E943502682F6F778DE00E942802FA
S113070086E00E9435028B7109F460CFC3E08C2F20
S1130710DF91CF911F910F91FF90EF90DF90CF90D9
S1130720BF90AF909F908F907F906F905F904F900D
S11307303F900895EF92FF920F931F93CF93DF930F
S113074000D000D0CDB7DEB7182F7B0167E08DE075
S11307500E942802F70110838E010F5F1F4F97013B
S113076041E0B7018CE00E946B02813059F4498169
S11307705A816B817C81403151056105710519F005
S113078083E001C083E00F900F900F900F90DF91F2
S1130790CF911F910F91FF90EF900895EF92FF92E8
S11307A00F931F93CF93DF9300D000D0CDB7DEB764
S11307B07C0160E08DE00E94280283E9F7018083D8
S11307C080E281838E010F5F1F4F970142E0B701E2
S11307D08CE00E946B02813071F4F701A7014C5F39
S11307E05F4F90E0219192274E175F07D9F7F701E9
S11307F02481921383E00F900F900F900F90DF915C
S1130800CF911F910F91FF90EF9008958CE284B9DE
S113081081E58CBD08958EBD0DB407FEFDCF8EB568
S11308200895AEE0B0E0E7E1F4E00C94D2060D895F
S11308301E8986E08C831A8309838FEF9FE79E834A
S11308408D83AE01475E5F4F6F89788DCE0101962F
S11308500E943304EF81F885E00FF11F10822E9679
S1130860E4E00C94EE06ABE0B0E0E9E3F4E00C94D1
S1130870C4066C017B018A01FC0117821682838104
S113088081FFCCC1CE0101963C01F6019381F701B1
S113089093FD859193FF81917F01882309F4BAC167
S11308A0853239F493FD859193FF81917F018532DF
S11308B029F4B60190E00E942A06E7CF912C212C5E
S11308C0312CFFE1F315D8F08B3279F038F4803213
S11308D079F08332A1F4232D20611DC08D3261F0A3
S11308E0803369F4232D216016C0832D8260382E55
S11308F0E32DE4603E2E2AC0F32DF8601DC037FCC2
S11309002DC020ED280F2A3040F08E32B9F436FC89
S113091081C1232D2064322E19C036FE06C08AE020
S1130920989E200D1124922E11C0EAE02E9E200DD7
S11309301124222EF32DF0623F2E08C08C3621F4B0
S1130940832D8068382E02C0883641F4F70193FD68
S1130950859193FF81917F018111B3CF982F9F7D62
S11309609554933028F40C5F1F4F9FE399830DC077
S1130970833631F0833771F0833509F059C021C0D3
S1130980F801808189830E5F1F4F88248394912C02
S1130990530113C02801F2E04F0E511CF801A0804E
S11309A0B18036FE03C0692D70E002C06FEF7FEFA7
S11309B0C5010E941F064C018201F32DFF773F2ED3
S11309C016C0280122E0420E511CF801A080B1801B
S11309D036FE03C0692D70E002C06FEF7FEFC501E2
S11309E00E9414064C01F32DF0683F2E820133FC63
S11309F01BC0822D90E088169906B0F4B60180E2FF
S1130A0090E00E942A062A94F4CFF50137FC8591E0
S1130A1037FE81915F01B60190E00E942A06211001
S1130A202A9421E0821A91088114910471F7E8C094
S1130A30843611F0893641F5F80137FE07C060812C
S1130A407181828193810C5F1F4F08C06081718125
S1130A50072E000C880B990B0E5F1F4FF32DFF76AA
S1130A603F2E97FF09C090958095709561957F4FB3
S1130A708F4F9F4FF0683F2E2AE030E0A3010E9481
S1130A806606882E861845C0853731F4232D2F7EBF
S1130A90B22E2AE030E025C0932D997FB92E8F36EF
S1130AA0C1F018F4883579F0B5C0803719F088376B
S1130AB021F0B0C0E92FE061BE2EB4FE0DC0FB2DC5
S1130AC0F460BF2E09C034FE0AC0292F2660B22E5E
S1130AD006C028E030E005C020E130E002C020E19B
S1130AE032E0F801B7FE07C0608171818281938191
S1130AF00C5F1F4F06C06081718180E090E00E5F43
S1130B001F4FA3010E946606882E8618FB2DFF77CF
S1130B103F2E36FE0DC0232D2E7FA22E891458F4AD
S1130B2034FE0BC032FC09C0832D8E7EA82E05C076
S1130B30B82CA32C03C0B82C01C0B92CA4FE0FC040
S1130B40FE01E80DF11D8081803321F49A2D997EF8
S1130B50A92E09C0A2FE06C0B394B39404C08A2D82
S1130B60867809F0B394A3FC11C0A0FE06C0B214A9
S1130B7088F4280C922C9B180EC0B21460F4B601B1
S1130B8080E290E00E942A06B394F7CFB21418F4DE
S1130B902B1802C0982C212CA4FE10C0B60180E3AF
S1130BA090E00E942A06A2FE17C0A1FC03C088E7B9
S1130BB090E002C088E590E0B6010CC08A2D8678EA
S1130BC059F0A1FE02C08BE201C080E2A7FC8DE2D5
S1130BD0B60190E00E942A06891438F4B60180E335
S1130BE090E00E942A069A94F7CF8A94F301E80DC4
S1130BF0F11D8081B60190E00E942A068110F5CF94
S1130C00222009F442CEB60180E290E00E942A0636
S1130C102A94F6CFF6018681978102C08FEF9FEF69
S1130C202B96E2E10C94E006FC01059061507040C3
S1130C300110D8F7809590958E0F9F1F0895FC01A1
S1130C406150704001900110D8F7809590958E0FF7
S1130C509F1F08950F931F93CF93DF93FB0123816D
S1130C6021FD03C08FEF9FEF2CC022FF16C04681E9
S1130C705781248135814217530744F4A081B181FF
S1130C809D012F5F3F4F318320838C9326813781D1
S1130C902F5F3F4F3783268314C08B01EC01FB0188
S1130CA00084F185E02D0995892BE1F6D80116968B
S1130CB08D919C911797019617969C938E931697F6
S1130CC0CE01DF91CF911F910F910895FA01AA27C8
S1130CD0283051F1203181F1E8946F936E7F6E5F7B
S1130CE07F4F8F4F9F4FAF4FB1E03ED0B4E03CD029
S1130CF0670F781F891F9A1FA11D680F791F8A1F0C
S1130D00911DA11D6A0F711D811D911DA11D20D072
S1130D1009F468943F912AE0269F11243019305D2C
S1130D203193DEF6CF010895462F4770405D41931D
S1130D30B3E00FD0C9F7F6CF462F4F70405D4A336A
S1130D4018F0495D31FD4052419302D0A9F7EACF32
S1130D50B4E0A6959795879577956795BA95C9F761
S1130D6000976105710508959B01AC010A2E069454
S1130D705795479537952795BA95C9F7620F731F0D
S1130D80841F951FA01D08952F923F924F925F924A
S1130D906F927F928F929F92AF92BF92CF92DF9287
S1130DA0EF92FF920F931F93CF93DF93CDB7DEB7EC
S1130DB0CA1BDB0B0FB6F894DEBF0FBECDBF099480
S1130DC02A88398848885F846E847D848C849B84D7
S1130DD0AA84B984C884DF80EE80FD800C811B81E5
S1130DE0AA81B981CE0FD11D0FB6F894DEBF0FBE14
S10D0DF0CDBFED010895F894FFCF84
S1130DFA5246494420526561646572004D49464130
S1130E0A5245205243353232763200446574656362
S1130E1A746564004D494641524520524335323285
S1130E2A7631004E6F2072656164657220666F7553
S1130E3A6E640071002575004572726F72006F004E
S9030000FC
