:100000000C9434000C9451000C9451000C94510049
:100010000C9451000C9451000C9451000C9451001C
:100020000C9451000C9451000C9451000C9451000C
:100030000C9451000C9451000C9451000C945100FC
:100040000C9451000C9451000C9451000C945100EC
:100050000C9451000C9451000C9451000C945100DC
:100060000C9451000C94510011241FBECFEFD8E026
:10007000DEBFCDBF11E0A0E0B1E0ECE0FCE002C0EB
:1000800005900D92AA33B107D9F721E0AAE3B1E0B8
:1000900001C01D92AA33B207E1F70E9495020C94A9
:1000A00004060C9400008CE284B981E58CBD0895AF
:1000B0008EBD0DB407FEFDCF8EB508959BB19F7028
:1000C000282F207F922B9BB95898599A35E03A9562
:1000D000F1F700005998EFE8F1E03197F1F700C02F
:1000E00000002BB12F70F0E18F9FC0011124822BF3
:1000F0008BB9599A35E03A95F1F7000059988FE994
:100100009FE00197F1F700C0000008959BB19F7038
:10011000282F207F922B9BB9589A599AEFE8F1E04B
:100120003197F1F700C000005998EFE8F1E03197FE
:10013000F1F700C000002BB12F70F0E18F9FC001DC
:100140001124822B8BB9599A8FE891E00197F1F72E
:1001500000C000005998EFE9FFE03197F1F700C0C7
:10016000000008958FEF8AB92FEF89EF90E02150BA
:1001700080409040E1F700C0000082E00E945E00F5
:1001800088E20E945E008FE00E945E0086E00E948E
:100190005E0081E00E945E008FE99FE00197F1F729
:1001A00000C000000895CF93DF93EC01888188237D
:1001B00031F021960E94860089918111FBCFDF9159
:1001C000CF91089581E00E945E008FE99FE0019742
:1001D000F1F700C0000080E80E945E000895CF9310
:1001E000C62F2A98880F8E770E9458008C2F0E9465
:1001F00058002A9ACF9108952A98880F8E778068A0
:100200000E94580080E00E9458002A9A08956FE0EA
:1002100081E00E94EF0008950E9407016DE88AE2E4
:100220000E94EF006EE38BE20E94EF006EE18CE231
:100230000E94EF0060E08DE20E94EF0060E485E143
:100240000E94EF006DE381E10E94EF0084E10E94D3
:10025000FC00982F937029F4682F636084E10E945A
:10026000EF0008953F924F925F926F927F928F922C
:100270009F92AF92BF92CF92DF92EF92FF920F9335
:100280001F93CF93DF93982EF62EE72E442E822EC7
:10029000332E58018CE0981609F4C9C0EEE09E1286
:1002A00003C010E102E102C010E000E084E00E941F
:1002B000FC00682F6F7784E00E94EF008AE00E94C4
:1002C000FC00682F60688AE00E94EF0060E081E037
:1002D0000E94EF00512C612C712C411451046104D7
:1002E000710419F415C010E307E7CF2DDE2DC12CE2
:1002F000D12C7601699189E00E94EF00FFEFCF1ABF
:10030000DF0AEF0AFF0AC414D504E604F70490F3E9
:10031000692D81E00E94EF008CE0981208C08DE00A
:100320000E94FC00682F60688DE00E94EF0084E06E
:100330000E94FC00F82EC0E0D0E011600AC084E00A
:100340000E94FC00F82E2196CF3CE7E0DE0709F47E
:100350008CC0812F8F2199F392C00170F02211F08F
:10036000C2E001C0C1E0FCE09F1298C08AE00E9498
:10037000FC00482E8CE00E94FC00282F2770A9F07A
:10038000842D90E00197880F991F880F991F880F7F
:10039000991F820F911D092E000CAA0BBB0BF501B2
:1003A00080839183A283B38311C0842D90E0880F52
:1003B000991F880F991F880F991F092E000CAA0BEF
:1003C000BB0BF50180839183A283B383442071F03A
:1003D000842D813108F080E1482E512C612C712C44
:1003E000411451046104710429F458C0412C512C6A
:1003F00032014394082D132DC12CD12C760189E0B4
:100400000E94FC00F80181938F01FFEFCF1ADF0AF1
:10041000EF0AFF0AC414D504E604F70480F33EC0D3
:100420006CE081E00E94EF0010E307E778CF84E002
:100430000E94FC00682F6F7784E00E94EF008AE042
:100440000E94FC00682F60688AE00E94EF0060E074
:1004500081E00E94EF00512C612C712C4114510459
:100460006104710409F03FCFDBCF8DE00E94FC00F6
:10047000682F6F778DE00E94EF00C3E00FC08DE022
:100480000E94FC00682F6F778DE00E94EF0086E0ED
:100490000E94FC008B7109F460CFC3E08C2FDF91C8
:1004A000CF911F910F91FF90EF90DF90CF90BF9071
:1004B000AF909F908F907F906F905F904F903F9004
:1004C0000895EF92FF920F931F93CF93DF9300D085
:1004D00000D0CDB7DEB7182F7B0167E08DE00E941A
:1004E000EF00F70110838E010F5F1F4F970141E06E
:1004F000B7018CE00E943201813059F449815A8160
:100500006B817C81403151056105710519F083E0F3
:1005100001C083E00F900F900F900F90DF91CF916B
:100520001F910F91FF90EF900895CF93DF93CDB778
:10053000DEB765970FB6F894DEBF0FBECDBF2FEFC5
:1005400080E792E0215080409040E1F700C0000039
:100550000E9453000E940C010E94B20087E30E9497
:10056000FC00823949F480E091E00E94D3008FE0E2
:1005700091E00E94D30010C08059823048F488E195
:1005800091E00E94D3008FE091E00E94D30004C06C
:1005900087E291E00E94D3002FEF81EE94E021509A
:1005A00080409040E1F700C0000082E00E94FC0023
:1005B000682F606282E00E94EF0083E00E94FC00EE
:1005C000682F606883E00E94EF002FEF8DE399E4CD
:1005D000215080409040E1F700C000000E94E200FE
:1005E0000F2EF7E3EF2EF1E0FF2EF02D8E010F5EC0
:1005F0001F4FBE016F5F7F4F82E50E9461021F9215
:100600008F93FF92EF921F930F930E941A03C801DA
:100610000E94D3002FEF83ED90E321508040904063
:10062000E1F700C000000F900F900F900F900F9017
:100630000F90DFCFAEE0B0E0E0E2F3E00C94DB053A
:100640000D891E8986E08C831A8309838FEF9FE7CB
:100650009E838D83AE01475E5F4F6F89788DCE019B
:1006600001960E943C03EF81F885E00FF11F108294
:100670002E96E4E00C94F705ABE0B0E0E2E4F3E0A2
:100680000C94CD056C017B018A01FC011782168256
:10069000838181FFCCC1CE0101963C01F60193819B
:1006A000F70193FD859193FF81917F01882309F4E0
:1006B000BAC1853239F493FD859193FF81917F0111
:1006C000853229F4B60190E00E943305E7CF912CE2
:1006D000212C312CFFE1F315D8F08B3279F038F46E
:1006E000803279F08332A1F4232D20611DC08D3238
:1006F00061F0803369F4232D216016C0832D826060
:10070000382EE32DE4603E2E2AC0F32DF8601DC084
:1007100037FC2DC020ED280F2A3040F08E32B9F47E
:1007200036FC81C1232D2064322E19C036FE06C04E
:100730008AE0989E200D1124922E11C0EAE02E9E90
:10074000200D1124222EF32DF0623F2E08C08C368E
:1007500021F4832D8068382E02C0883641F4F701D9
:1007600093FD859193FF81917F018111B3CF982FE4
:100770009F7D9554933028F40C5F1F4F9FE399831E
:100780000DC0833631F0833771F0833509F059C0DD
:1007900021C0F801808189830E5F1F4F88248394D4
:1007A000912C530113C02801F2E04F0E511CF801A7
:1007B000A080B18036FE03C0692D70E002C06FEFEB
:1007C0007FEFC5010E9428054C018201F32DFF77C0
:1007D0003F2E16C0280122E0420E511CF801A080D5
:1007E000B18036FE03C0692D70E002C06FEF7FEF6D
:1007F000C5010E941D054C01F32DF0683F2E8201BA
:1008000033FC1BC0822D90E088169906B0F4B60127
:1008100080E290E00E9433052A94F4CFF50137FC82
:10082000859137FE81915F01B60190E00E9433050A
:1008300021102A9421E0821A91088114910471F701
:10084000E8C0843611F0893641F5F80137FE07C05B
:1008500060817181828193810C5F1F4F08C060812C
:100860007181072E000C880B990B0E5F1F4FF32D23
:10087000FF763F2E97FF09C0909580957095619502
:100880007F4F8F4F9F4FF0683F2E2AE030E0A3014B
:100890000E946F05882E861845C0853731F4232DB8
:1008A0002F7EB22E2AE030E025C0932D997FB92EFD
:1008B0008F36C1F018F4883579F0B5C0803719F05B
:1008C000883721F0B0C0E92FE061BE2EB4FE0DC024
:1008D000FB2DF460BF2E09C034FE0AC0292F26600C
:1008E000B22E06C028E030E005C020E130E002C0B2
:1008F00020E132E0F801B7FE07C06081718182819A
:1009000093810C5F1F4F06C06081718180E090E091
:100910000E5F1F4FA3010E946F05882E8618FB2DC6
:10092000FF773F2E36FE0DC0232D2E7FA22E891479
:1009300058F434FE0BC032FC09C0832D8E7EA82EE5
:1009400005C0B82CA32C03C0B82C01C0B92CA4FE40
:100950000FC0FE01E80DF11D8081803321F49A2D36
:10096000997EA92E09C0A2FE06C0B394B39404C018
:100970008A2D867809F0B394A3FC11C0A0FE06C0AE
:10098000B21488F4280C922C9B180EC0B21460F498
:10099000B60180E290E00E943305B394F7CFB21421
:1009A00018F42B1802C0982C212CA4FE10C0B601FC
:1009B00080E390E00E943305A2FE17C0A1FC03C0B3
:1009C00088E790E002C088E590E0B6010CC08A2D6F
:1009D000867859F0A1FE02C08BE201C080E2A7FC3C
:1009E0008DE2B60190E00E943305891438F4B60117
:1009F00080E390E00E9433059A94F7CF8A94F30144
:100A0000E80DF11D8081B60190E00E943305811050
:100A1000F5CF222009F442CEB60180E290E00E9498
:100A200033052A94F6CFF6018681978102C08FEFB5
:100A30009FEF2B96E2E10C94E905FC0105906150D3
:100A400070400110D8F7809590958E0F9F1F0895E4
:100A5000FC016150704001900110D8F7809590958D
:100A60008E0F9F1F08950F931F93CF93DF93FB016A
:100A7000238121FD03C08FEF9FEF2CC022FF16C002
:100A800046815781248135814217530744F4A08160
:100A9000B1819D012F5F3F4F318320838C9326814D
:100AA00037812F5F3F4F3783268314C08B01EC01C2
:100AB000FB010084F185E02D0995892BE1F6D80131
:100AC00016968D919C911797019617969C938E93ED
:100AD0001697CE01DF91CF911F910F910895FA01E2
:100AE000AA27283051F1203181F1E8946F936E7F6D
:100AF0006E5F7F4F8F4F9F4FAF4FB1E03ED0B4E05E
:100B00003CD0670F781F891F9A1FA11D680F791F9E
:100B10008A1F911DA11D6A0F711D811D911DA11DAF
:100B200020D009F468943F912AE0269F11243019BF
:100B3000305D3193DEF6CF010895462F4770405D5A
:100B40004193B3E00FD0C9F7F6CF462F4F70405D09
:100B50004A3318F0495D31FD4052419302D0A9F764
:100B6000EACFB4E0A6959795879577956795BA955E
:100B7000C9F700976105710508959B01AC010A2E24
:100B800006945795479537952795BA95C9F7620FFB
:100B9000731F841F951FA01D08952F923F924F929F
:100BA0005F926F927F928F929F92AF92BF92CF92FD
:100BB000DF92EF92FF920F931F93CF93DF93CDB706
:100BC000DEB7CA1BDB0B0FB6F894DEBF0FBECDBF7E
:100BD00009942A88398848885F846E847D848C844F
:100BE0009B84AA84B984C884DF80EE80FD800C8158
:100BF0001B81AA81B981CE0FD11D0FB6F894DEBF3B
:0C0C00000FBECDBFED010895F894FFCFAA
:100C0C004D494641524520524335323276320044EA
:100C1C0065746563746564004D49464152452052C4
:100C2C00433532327631004E6F20726561646572E5
:0A0C3C0020666F756E6400257500D8
:00000001FF
